{
    "_format": "hh-sol-artifact-1",
    "contractName": "GreetPortal",
    "sourceName": "contracts/GreetPortal.sol",
    "abi": [
        {
            "inputs": [],
            "stateMutability": "nonpayable",
            "type": "constructor"
        },
        {
            "inputs": [],
            "name": "getTotalGreetings",
            "outputs": [
                {
                    "internalType": "uint256",
                    "name": "",
                    "type": "uint256"
                }
            ],
            "stateMutability": "view",
            "type": "function"
        },
        {
            "inputs": [],
            "name": "greet",
            "outputs": [],
            "stateMutability": "nonpayable",
            "type": "function"
        },
        {
            "inputs": [],
            "name": "totalGreetings",
            "outputs": [
                {
                    "internalType": "uint256",
                    "name": "",
                    "type": "uint256"
                }
            ],
            "stateMutability": "view",
            "type": "function"
        }
    ],
    "bytecode": "0x608060405234801561001057600080fd5b506100596040518060400160405280600781526020017f576173736170210000000000000000000000000000000000000000000000000081525061005e60201b6102091760201c565b6101e1565b6100fa81604051602401610072919061015f565b6040516020818303038152906040527f41304fac000000000000000000000000000000000000000000000000000000007bffffffffffffffffffffffffffffffffffffffffffffffffffffffff19166020820180517bffffffffffffffffffffffffffffffffffffffffffffffffffffffff83818316178352505050506100fd60201b60201c565b50565b60008151905060006a636f6e736f6c652e6c6f679050602083016000808483855afa5050505050565b600061013182610181565b61013b818561018c565b935061014b81856020860161019d565b610154816101d0565b840191505092915050565b600060208201905081810360008301526101798184610126565b905092915050565b600081519050919050565b600082825260208201905092915050565b60005b838110156101bb5780820151818401526020810190506101a0565b838111156101ca576000848401525b50505050565b6000601f19601f8301169050919050565b61067e806101f06000396000f3fe608060405234801561001057600080fd5b50600436106100415760003560e01c80638490baec14610046578063b528d8f214610064578063cfae321714610082575b600080fd5b61004e61008c565b60405161005b919061050c565b60405180910390f35b61006c6101a9565b604051610079919061050c565b60405180910390f35b61008a6101af565b005b60006101a16040518060400160405280601d81526020017f5468657265202573202564206772656574696e67257320746f74616c2100000081525060016000541461010c576040518060400160405280600381526020017f6172650000000000000000000000000000000000000000000000000000000000815250610143565b6040518060400160405280600281526020017f69730000000000000000000000000000000000000000000000000000000000008152505b60005460016000541461018b576040518060400160405280600181526020017f730000000000000000000000000000000000000000000000000000000000000081525061019c565b604051806020016040528060008152505b6102a2565b600054905090565b60005481565b60016000808282546101c19190610543565b925050819055506102076040518060400160405280600f81526020017f257320686173206772656574656421000000000000000000000000000000000081525033610344565b565b61029f8160405160240161021d9190610460565b6040516020818303038152906040527f41304fac000000000000000000000000000000000000000000000000000000007bffffffffffffffffffffffffffffffffffffffffffffffffffffffff19166020820180517bffffffffffffffffffffffffffffffffffffffffffffffffffffffff83818316178352505050506103e0565b50565b61033e848484846040516024016102bc94939291906104b2565b6040516020818303038152906040527f8d142cdd000000000000000000000000000000000000000000000000000000007bffffffffffffffffffffffffffffffffffffffffffffffffffffffff19166020820180517bffffffffffffffffffffffffffffffffffffffffffffffffffffffff83818316178352505050506103e0565b50505050565b6103dc828260405160240161035a929190610482565b6040516020818303038152906040527f319af333000000000000000000000000000000000000000000000000000000007bffffffffffffffffffffffffffffffffffffffffffffffffffffffff19166020820180517bffffffffffffffffffffffffffffffffffffffffffffffffffffffff83818316178352505050506103e0565b5050565b60008151905060006a636f6e736f6c652e6c6f679050602083016000808483855afa5050505050565b61041281610599565b82525050565b600061042382610527565b61042d8185610532565b935061043d8185602086016105d5565b61044681610637565b840191505092915050565b61045a816105cb565b82525050565b6000602082019050818103600083015261047a8184610418565b905092915050565b6000604082019050818103600083015261049c8185610418565b90506104ab6020830184610409565b9392505050565b600060808201905081810360008301526104cc8187610418565b905081810360208301526104e08186610418565b90506104ef6040830185610451565b81810360608301526105018184610418565b905095945050505050565b60006020820190506105216000830184610451565b92915050565b600081519050919050565b600082825260208201905092915050565b600061054e826105cb565b9150610559836105cb565b9250827fffffffffffffffffffffffffffffffffffffffffffffffffffffffffffffffff0382111561058e5761058d610608565b5b828201905092915050565b60006105a4826105ab565b9050919050565b600073ffffffffffffffffffffffffffffffffffffffff82169050919050565b6000819050919050565b60005b838110156105f35780820151818401526020810190506105d8565b83811115610602576000848401525b50505050565b7f4e487b7100000000000000000000000000000000000000000000000000000000600052601160045260246000fd5b6000601f19601f830116905091905056fea2646970667358221220e13ae56ea3188236dc539d91d0902570aa489987e47cae0a2e63ad950390627464736f6c63430008040033",
    "linkReferences": {},
    "deployedLinkReferences": {}
}